:100000000C94E5000C94C3080C949C080C94090A09
:100010000C94090A0C94090A0C940D010C940D011E
:100020000C940D010C940D010C94C80A0C943B0B1C
:100030000C94810A0C940D010C940D010C940D018B
:100040000C9452080C940D010C9420080C94FA079F
:100050000C940D010C940D010C940D010C940D01E8
:100060000C94EA080C940D016D2D6E616D652D697F
:100070006F006D2D72657365742D706F6C617269A0
:1000800074792D006932632D3F6D6F6431360065E0
:100090002D006D2D6932632D656E61626C65642D76
:1000A000006D2D6932632D64697361626C65640053
:1000B0006D2D74696D65722D656E61626C6564008D
:1000C0006D2D74696D65722D64697361626C656410
:1000D000006D2D6475742D706173737468726F7523
:1000E000676828002D006D2D76646174612D0046CF
:1000F000414C4C494E47004348414E4745006D2D09
:1001000074696D6573746D702D6D6F64652D00314C
:100110002E322E300000000000240027002A0000AC
:1001200000000800020100000304070000000000B6
:100130000000006D2D726561647900496F54436F52
:100140006E6E65637420494F204D616E6167657204
:1001500020312E322E30006D2D7665722D006D2DE2
:100160006C61702D75732D006D2D72656164790061
:10017000213D002D3F23617267733F00652D0065AF
:100180002D005B6475745D3A2000000000002300C0
:100190002600290000000000250028002B00040490
:1001A000040404040404020202020202030303031F
:1001B00003030102040810204080010204081020FB
:1001C000010204081020C10B230F11241FBECFEF22
:1001D000D8E0DEBFCDBF13E0A0E0B1E0EAE0F6E298
:1001E00002C005900D92A835B107D9F726E0A8E521
:1001F000B3E001C01D92A23DB207E1F710E0C4EEEA
:10020000D0E004C02197FE010E94F710C33ED10741
:10021000C9F70E94860C0C94F8120C940000E0912F
:100220007A04F0917B04309729F01092FA0410922E
:10023000F904099408950895AF92BF92CF92DF9286
:10024000EF92FF920F931F93CF93DF936C017B018B
:100250008B01040F151FEB015E01AE18BF08C0171C
:10026000D10759F06991D601ED91FC910190F0818F
:10027000E02DC6010995892B79F7C501DF91CF9152
:100280001F910F91FF90EF90DF90CF90BF90AF90B4
:100290000895FC01538D448D252F30E0842F90E08C
:1002A000821B930B541710F0CF9608950197089571
:1002B000FC01918D828D981761F0A28DAE0FBF2F3A
:1002C000B11D5D968C91928D9F5F9F73928F90E090
:1002D00008958FEF9FEF0895FC01918D828D9817FF
:1002E00031F0828DE80FF11D858D90E008958FEF3C
:1002F0009FEF0895FC01918D228D892F90E0805C05
:100300009F4F821B91098F739927089580E895E08C
:100310000E947A0121E0892B09F420E0822F0895C0
:1003200080E090E0892B29F00E94860181110C94D5
:1003300000000895FC01A48DA80FB92FB11DA35A88
:10034000BF4F2C91848D90E001968F739927848FF5
:10035000A689B7892C93A089B1898C918370806418
:100360008C93938D848D981306C00288F389E02DB9
:1003700080818F7D80830895EF92FF920F931F936A
:10038000CF93DF93EC0181E0888F9B8D8C8D981348
:100390001AC0E889F989808185FF15C09FB7F89454
:1003A000EE89FF896083E889F989808183708064A0
:1003B00080839FBF81E090E0DF91CF911F910F91EB
:1003C000FF90EF900895F62E0B8D10E00F5F1F4FFA
:1003D0000F731127E02E8C8D8E110CC00FB607FC09
:1003E000FACFE889F989808185FFF5CFCE010E9497
:1003F0009A01F1CFEB8DEC0FFD2FF11DE35AFF4F6A
:10040000F0829FB7F8940B8FEA89FB898081806224
:10041000CFCF682F80E895E00C94BC010F931F9319
:10042000CF93DF938C01D0E0C0E0F801EC0FFD1F0B
:100430006491662341F080E895E00E94BC01892B1D
:1004400011F02196F2CFCE01DF91CF911F910F9144
:100450000895CF93DF93EC01888D8823B9F0AA89A2
:10046000BB89E889F9898C9185FD03C0808186FD6F
:100470000DC00FB607FCF7CF8C9185FFF2CF8081BE
:1004800085FFEDCFCE010E949A01E9CFDF91CF9198
:10049000089590E0FC01E15EFE4F2491FC01EE54D2
:1004A000FE4F3491FC01E256FE4FE491EE23C9F079
:1004B000222339F0233001F1A8F4213019F1223040
:1004C00029F1F0E0EE0FFF1FEC56FE4FA591B4911D
:1004D0008FB7F894EC91611126C030953E233C9380
:1004E0008FBF08952730A9F02830C9F0243049F78C
:1004F000809180008F7D03C0809180008F778093F2
:100500008000DFCF84B58F7784BDDBCF84B58F7D4E
:10051000FBCF8091B0008F778093B000D2CF8091D5
:10052000B0008F7DF9CF3E2BDACFCF93DF9390E0F1
:10053000FC01EE54FE4F249182569E4FFC018491A3
:100540008823C9F090E0880F991FFC01EB5EFE4FF5
:10055000A591B491FC01EC56FE4FC591D491611167
:100560000DC09FB7F8948C91209582238C9388813D
:10057000282328839FBFDF91CF910895623051F4E3
:100580009FB7F8943C91822F809583238C93E881C8
:100590002E2BEFCF8FB7F894EC912E2B2C938FBF8F
:1005A000EACF3FB7F8948091F1049091F204A091C2
:1005B000F304B091F40426B5A89B05C02F3F19F0B1
:1005C0000196A11DB11D3FBFBA2FA92F982F8827D3
:1005D000BC01CD01620F711D811D911D42E0660FAE
:1005E000771F881F991F4A95D1F70895E9E6F0E033
:1005F0002081237F880F991F880F991F282B208324
:10060000E99A089508952091A204260F3327331FF5
:1006100021323105ECF42091C604FC0190E080E029
:10062000243069F082E00895A091A2042191AC01E8
:100630004E575B4FA40FB52FB11D2C930196861713
:1006400098F38091A204680F6093A20480E008955B
:1006500081E008951092C60481E08093C80410924E
:10066000C70461E082E10E94490261E083E10E94E7
:100670004902E9EBF0E080818E7F808380818D7F6D
:10068000808388E48093B80085E48093BC0008955B
:100690000895E091FC048091FB04E81730F4F0E049
:1006A000E65AFB4F808190E008958FEF9FEF089509
:1006B0009091FC048091FB042FEF3FEF981748F4D2
:1006C000E92FF0E0E65AFB4F208130E09F5F9093E6
:1006D000FC04C90108958091FB049091FC04891BDE
:1006E000990B0895CF93DF93CB01EA01642F0E9409
:1006F0000303CE01DF91CF910895CF93DF931F9233
:10070000CDB7DEB7698361E0CE0101960E94030395
:1007100081E090E00F90DF91CF9108952091FF0448
:10072000309100052817390771F49091FD048091EC
:10073000FE04981741F0E091FD04F0E0E65EFB4F07
:10074000808190E008958FEF9FEF0895EF92FF92E0
:100750000F931F93CF93DF93DC015C96ED90FC9099
:100760005D97E114F10479F481E090E013969C9395
:100770008E93129790E080E0DF91CF911F910F91BF
:10078000FF90EF9008955196ED91FC9152975096FD
:100790008C915097982F90950FB75E962C915E97FD
:1007A000122F127021FD6095F8942081112319F108
:1007B000282B2083E7012197F1F728E0462F50E00E
:1007C000308160FF1AC0382B3083E7012197F1F7A1
:1007D000BA0175956795215089F7112381F08081C1
:1007E000892380830FBF5C968D919C910197F1F7CF
:1007F00081E090E0C1CF2923DCCF3923E5CF908180
:10080000892BEFCF2091FF0430910005281739077D
:1008100071F48091FE042091FD0490E0805C9F4F74
:10082000821B910960E470E00E94CF10089590E06F
:1008300080E008952091FF043091000528173907C2
:10084000B9F49091FD048091FE04981789F0E0912D
:10085000FD04F0E0E65EFB4F80812091FD0430E076
:100860002F5F3F4F2F7333272093FD0490E00895AF
:100870008FEF9FEF0895CF93DF93D0E0C0E080919A
:1008800000019091010125E0969587952A95E1F761
:10089000C817D90750F440E250E06AEF73E08DE1E9
:1008A00096E00E9472032196EACFDF91CF910895DE
:1008B00080910105882341F1F8940E94D102209192
:1008C000A9063091AA06F901EE0FFF1FEE0FFF1FD8
:1008D000E75DF94F6083718382839383C901019639
:1008E0008032910594F49093AA068093A906809192
:1008F000AB069091AC06803291052CF40196909352
:10090000AC068093AB06789408951092AA061092D4
:10091000A906EDCF90E080E008950F931F93CF9349
:10092000DF93EC0188819981009759F02A813B81FE
:100930002617370730F081E0DF91CF911F910F919B
:1009400008958B016F5F7F4F0E942212009759F02C
:10095000998388831B830A832C813D81232B59F73C
:10096000FC011082E8CF80E0E7CFFB01019000207E
:10097000E9F73197AF01461B570BDC01ED91FC9174
:100980000280F381E02D0994CF93DF930E940E0241
:10099000EC0169ED71E080E895E00E94B5048C0FF0
:1009A0009D1FDF91CF9108951092010580EC90E09A
:1009B0000C94C4041092AC061092AB061092AA06D6
:1009C0001092A90681E08093010580EB90E00C94E1
:1009D000C40410927B0410927A0481EA90E00C9493
:1009E000C40488E690E00C94C404CF93DF93D0E075
:1009F000C0E0009731F0BC0180E895E00E94B504AA
:100A0000EC0169ED71E080E895E00E94B5048C0F7F
:100A10009D1FDF91CF91089588EB91E00C94F50430
:100A20008F929F92AF92BF920F931F93CF93DF93BA
:100A3000CDB7DEB7A1970FB6F894DEBF0FBECDBF1E
:100A400019A2423008F44AE08E010F5D1F4F842E38
:100A5000912CB12CA12CA50194010E949E10E62F8F
:100A6000B901CA01EA3004F5E05DD801EE938D01C9
:100A7000232B242B252B79F790E080E0109729F089
:100A8000BD0180E895E00E94B504A1960FB6F894E8
:100A9000DEBF0FBECDBFDF91CF911F910F91BF90F1
:100AA000AF909F908F900895E95CDFCFCF92DF9257
:100AB000EF92FF92CF93DF936C01990FEE08FF083E
:100AC0006A30710511F54AE0F7FE20C08DE20E9400
:100AD0000902EC0166277727CB016C197D098E0985
:100AE0009F094AE00E941005C80FD91F69ED71E007
:100AF00080E895E00E94B5048C0F9D1FDF91CF9197
:100B0000FF90EF90DF90CF900895462FC701B60178
:100B10000E941005EC01EACFCF93DF9386EE90E0C0
:100B20000E940E02CAEFD3E06991062E000C770BEB
:100B3000880B990B40E10E94100584EE90E00E9422
:100B40000E0284E0C931D80779F78091190460E179
:100B500070E0082E000C990BDF91CF910C94560594
:100B60006CED71E080E895E00E94B5048FE091E0C3
:100B70000C94C404CF92DF92EF92FF920F931F93D5
:100B8000CF93DF93C2E1D1E082E1E82EF12C80E245
:100B90000E940902088119810115110529F0B80187
:100BA00080E895E00E94B504D12CC12CF801019099
:100BB0000020E9F73197E01BF10BC7018E1B9F0B5B
:100BC000C816D90638F480E20E9409028FEFC81ACD
:100BD000D80AECCF8C819D810E94F504289681E093
:100BE000C238D807A1F6DF91CF911F910F91FF90E6
:100BF000EF90DF90CF900895CF93DF9385ED8093B2
:100C0000BC0080917E0490917F04A0918004B091FB
:100C100081040796A11DB11D23E0B695A795979570
:100C200087952A95D1F72091BC0024FD03C010922E
:100C3000C60436C040917E0450917F0460918004C8
:100C400070918104452B462B472B69F30097A10532
:100C5000B10541F025E32A95F1F700000197A109BC
:100C6000B109E1CF80917D0491E090937C048823C9
:100C7000B9F0C091B800D091BA008091BC008A7BD5
:100C80008093BC0060E082E10E94490260E083E161
:100C90000E9449020E942A03D093BA00C093B80070
:100CA000DF91CF910895CF93DF93809102059091CA
:100CB00003050E94E30FEC0182E090E0209711F021
:100CC00081E090E090930701809306011092010566
:100CD000E99882E093E0909305018093040180916C
:100CE00006019091070128E534E030930501209337
:100CF00004010E94F6028EEF90E00E940E028FEE39
:100D000090E0CD2B11F087EF90E00E94C40487EEB5
:100D100091E0DF91CF910C94F504CF93DF93809114
:100D20000205909103050E94E30FEC0161E084E06D
:100D30000E94490260E084E00E944902C230D1056D
:100D400038F0CC0FDD1FCC0FDD1F25972197F1F771
:100D500061E084E0DF91CF910C944902CF93DF935F
:100D600080910205909103050E94E30FEC0190939E
:100D70000101809300018F709927892B51F08FE832
:100D800090E00E940E0284E890E0DF91CF910C94F5
:100D9000C4048BE394E090937B0480937A0482E90B
:100DA00090E00E940E02BE0190E080E04AE00E94C6
:100DB000100569ED71E080E895E0DF91CF910C942A
:100DC000B504CF93DF9380910205909103050E94B3
:100DD000E30FC1E0D0E0892B11F4D0E0C0E0D09364
:100DE000F903C093F80382E790E00E940E026AE0E4
:100DF00070E0CE01DF91CF910C945605CF92DF9237
:100E0000EF92FF92CF93DF930E94D102611571059B
:100E10008105910511F00E94DA0FCAEFD3E08FE649
:100E2000C82ED12CE12CF12C0E948B0FA70196012A
:100E30000E943510605F7F4F8F4F9F4F699384E012
:100E4000CA31D80789F7DF91CF91FF90EF90DF90FB
:100E5000CF900C948C057F928F929F92AF92BF920D
:100E6000CF92DF92EF92FF920F931F93CF93DF9376
:100E7000CDB7DEB728970FB6F894DEBF0FBECDBF53
:100E80001A8219821C821B821E821D8270E060E021
:100E9000CE0101960E948D0429813A81811165C09D
:100EA0002115310519F0C9010E9499111A82198280
:100EB0001E821D821C821B8282E0A82E85E0B82E35
:100EC00010E000E090E2792EE0902A05F0902B05EA
:100ED0000E151F050CF051C0F501C190D1905F01B6
:100EE000C114D104F1F0F60101900020E9F7319727
:100EF000EC19FD09B1F08D809E808E0E9F1EB4010D
:100F0000CE0101960E948D04882359F029813A81EF
:100F10008D819E81B601820F931F0E94F1129E82E5
:100F20008D82F1E0EF1AF1080E151F05DCF47F82C7
:100F30001886ED80FE808FEFE81AF80AB701CE011F
:100F400001960E948D04882369F029813A818D8160
:100F50009E81BE01695F7F4F820F931F0E94F11235
:100F6000FE82ED820F5F1F4FAFCF1E821D826BEDA1
:100F700071E0C9010E94F1129FCF81ED90E00E94C3
:100F80000E024D815E8169817A8180E895E00E9440
:100F90001C0189E20E94090269ED71E080E895E098
:100FA0000E94B50469817A816115710521F08DEA8D
:100FB00096E00E94B50465E28DEA96E00E94A603E1
:100FC00089819A81009711F00E94991128960FB695
:100FD000F894DEBF0FBECDBFDF91CF911F910F916F
:100FE000FF90EF90DF90CF90BF90AF909F908F9049
:100FF0007F9008951F920F920FB60F9211242F9396
:101000003F934F935F936F937F938F939F93AF9390
:10101000BF93EF93FF9380E895E00E949A01FF91C0
:10102000EF91BF91AF919F918F917F916F915F9160
:101030004F913F912F910F900FBE0F901F901895D9
:101040001F920F920FB60F9211242F938F939F939D
:10105000EF93FF93E0919005F09191058081E091ED
:101060009605F091970582FD1BC0908180919905AE
:101070008F5F8F7320919A05821741F0E091990557
:10108000F0E0E058FA4F958F80939905FF91EF912A
:101090009F918F912F910F900FBE0F901F901895D9
:1010A0008081F4CF1F920F920FB60F9211242F93CD
:1010B0003F938F939F93AF93BF938091ED04909153
:1010C000EE04A091EF04B091F0043091EC0423E021
:1010D000230F2D3758F50196A11DB11D2093EC0467
:1010E0008093ED049093EE04A093EF04B093F0048A
:1010F0008091F1049091F204A091F304B091F40472
:101100000196A11DB11D8093F1049093F204A09368
:10111000F304B093F404BF91AF919F918F913F91ED
:101120002F910F900FBE0F901F90189526E8230F58
:101130000296A11DB11DD2CF1F920F920FB60F9232
:1011400011242F933F934F935F936F937F938F93CC
:101150009F93AF93BF93EF93FF93E0910401F091BE
:1011600005010995FF91EF91BF91AF919F918F91EB
:101170007F916F915F914F913F912F910F900FBE93
:101180000F901F9018951F920F920FB60F92112477
:101190002F933F934F935F936F937F938F939F937F
:1011A000AF93BF93EF93FF93E0910201F09103019E
:1011B0000995FF91EF91BF91AF919F918F917F9191
:1011C0006F915F914F913F912F910F900FBE0F90B4
:1011D0001F9018951F920F920FB60F9211242F9304
:1011E0003F934F935F936F937F938F939F93AF93AF
:1011F000BF93EF93FF938091B900887F803609F405
:101200004AC0F0F5883209F4A7C018F5803109F416
:101210009BC0B8F4882309F4F9C0883009F494C05D
:10122000FF91EF91BF91AF919F918F917F916F91BE
:101230005F914F913F912F910F900FBE0F901F9094
:101240001895883109F488C0803251F78093C5041D
:1012500014C0803409F49DC040F48033B9F388335E
:10126000F9F68093C50485ECB0C0803509F485C0DB
:10127000883509F496C0883499F60E94FC05D0CFD1
:10128000883909F48CC038F5883729F050F488364D
:1012900011F0803729F683E08093C6041092C404CD
:1012A00057C0883809F47BC0803919F0803809F0BC
:1012B000B7CF8091C404803208F071C0E091C404BB
:1012C00081E08E0F8093C4048091BB00F0E0EC5568
:1012D000FB4F80833DC0803B39F0E0F4803A09F455
:1012E00079C0883A09F09CCF84E08093C6041092BC
:1012F000A3041092A204E091F704F091F804099578
:101300008091A20481110FC081E08093A204109209
:10131000820409C0803C09F4A6CF883C09F4A3CF1D
:10132000883B09F07DCFE091A30481E08E0F80938C
:10133000A304F0E0EE57FB4F80818093BB009091B7
:10134000A3048091A20429C08091EB048093BB0088
:1013500085EC8093BC0064CF9091EA048091E9040D
:10136000981758F5E091EA0481E08E0F8093EA0423
:10137000F0E0E753FB4F8081E9CFE091EA0481E0A0
:101380008E0F8093EA048091BB00F0E0E753FB4F9F
:1013900080839091EA048091E9049817C8F285E867
:1013A000D8CFE091EA0481E08E0F8093EA04809127
:1013B000BB00F0E0E753FB4F80838091C8048111AC
:1013C0005CCF81E08093C70484EA8093BC001092D4
:1013D000C60426CF85EC8093BC001092C604809191
:1013E000C404803230F4E091C404F0E0EC55FB4FCB
:1013F00010826091C40470E0E091F504F091F6046D
:1014000084EA94E009951092C4040ACF1092C504AE
:1014100034CF1F920F920FB60F9211242F933F9348
:101420004F935F936F937F938F939F93AF93BF93EC
:10143000EF93FF93E091FF04F0910005309749F09E
:10144000A685B7858585968D91FF14C09C918923CB
:10145000A1F4FF91EF91BF91AF919F918F917F91F7
:101460006F915F914F913F912F910F900FBE0F9011
:101470001F9018959C91892361F7A389B4899C9149
:101480008589809589238C93868997890197F1F7BF
:10149000608D718DA685B785558538E020E0CB013C
:1014A0000197F1F7822F90E095958795282F4C9121
:1014B000452309F02068315091F7868D81FD2095F4
:1014C0008091FE0490E001968F7399273091FD047E
:1014D000381799F0A091FE04B0E0A65EBB4F2C93A4
:1014E0008093FE04828D938D0197F1F7A389B489CF
:1014F0008C919589892B8C93ACCF868D8160868F5A
:10150000F1CF1F920F920FB60F9211242F938F934A
:101510009F93EF93FF9380916F008B7F80936F0079
:10152000809181008F7B809381008091F7032091CF
:10153000F60320589091F503893020F49695922B6C
:101540008F5FFACF9093F5038091F4038F5F80351E
:1015500008F080E02091F303281739F0E82FF0E03D
:10156000ED55FC4F90838093F4031092F703809124
:1015700081008F7B809381001092F603FF91EF91A1
:101580009F918F912F910F900FBE0F901F901895E4
:101590001F920F920FB60F9211242F933F934F93E8
:1015A0008F939F93EF93FF93209186003091870054
:1015B0004091F60380918100442349F18F7B809311
:1015C00081001092F6039091F703911127C0411109
:1015D00012C030938B0020938A0084E086BB8091F8
:1015E0006F00846080936F003093A2032093A10367
:1015F00081E08093F703FF91EF919F918F914F913D
:101600003F912F910F900FBE0F901F9018958064FF
:101610008093810080E88093F603D5CF2091F60374
:101620008091F5038695822B9F5F9930D8F3809344
:10163000F50380916F008B7F80936F008091F4039E
:101640008F5F803508F080E09091F303981749F0A0
:10165000E82FF0E09091F503ED55FC4F90838093D7
:10166000F403809181008F7B809381001092F603B8
:101670001092F703C0CF1F920F920FB60F92112452
:101680002F933F934F935F938F939F93EF93FF938A
:101690008091A00320919F03409188005091890080
:1016A00090919E038A30F0F4322F3170893009F422
:1016B00031E026958F5F9317A9F390918000332333
:1016C00071F0906C90938000509389004093880053
:1016D00030939E0320939F038093A00312C09F7BAF
:1016E0009068F0CF90919D03E0919C039E1323C0DE
:1016F0008A30A1F48BE08093A0035093890040933B
:101700008800FF91EF919F918F915F914F913F9151
:101710002F910F900FBE0F901F9018951092A0035D
:10172000809180008F738093800080916F008D7F07
:1017300080936F00E6CFEF5FE43408F0E0E0E093E1
:101740009C03F0E0E85AFC4F908190939F03109225
:101750009E03909180009F7B9068909380008A30D8
:1017600031F4509389004093880081E0B5CF809197
:101770008400909185004096909389008093880022
:10178000F4CF109283051092820588EE93E0A0E0DA
:10179000B0E08093840590938505A0938605B0936F
:1017A000870526E831E0309381052093800525ECFC
:1017B00030E030938D0520938C0524EC30E030939D
:1017C0008F0520938E0520EC30E030939105209317
:1017D000900521EC30E0309393052093920522ECA4
:1017E00030E0309395052093940526EC30E030935B
:1017F0009705209396051092990510929A051092DC
:101800009B0510929C051092200610921F06809353
:10181000210690932206A0932306B093240628E97C
:1018200031E030931E0620931D061092B0061092F0
:10183000AF068093B1069093B206A093B306B0931F
:10184000B4068AEA91E09093AE068093AD061092BA
:10185000C4061092C3061092C6061092C5061092D6
:10186000C8061092C7061092CA061092C906609167
:10187000CB066E7F6D7F6093CB066695617081E0CD
:10188000682789E00E94490261E089E00E94950290
:10189000EBEBF1E0E491E093BD06E7EAF1E0E491DF
:1018A000F0E0EE0FFF1FEC56FE4F85919491909360
:1018B000BF068093BE0660E08AE00E949502809198
:1018C000CB0681FD04C061E08AE00E9449028AE003
:1018D0008093B906ECEBF1E0E491E093BA06E8EA14
:1018E000F1E0E491F0E0EE0FFF1FE657FE4F859127
:1018F00094919093BC068093BB061092AA06109216
:10190000A9061092AC061092AB060895789484B59F
:10191000826084BD84B5816084BD85B5826085BDEB
:1019200085B5816085BD80916E00816080936E0079
:10193000109281008091810082608093810080916B
:10194000810081608093810080918000816080931C
:1019500080008091B10084608093B1008091B000DC
:1019600081608093B00080917A00846080937A00D7
:1019700080917A00826080937A0080917A00816001
:1019800080937A0080917A00806880937A00109228
:10199000C100E0E3F5E080E5DF011D928A95E9F7FB
:1019A000E0919005F091910582E08083E0918C05B3
:1019B000F0918D051082E0918E05F0918F0580E108
:1019C000808310929805E0919405F091950586E04A
:1019D0008083E0919205F0919305808180618083FE
:1019E000E0919205F0919305808188608083E09179
:1019F0009205F0919305808180688083E091920543
:101A0000F091930580818F7D808380E895E00E942E
:101A1000290262E083E00E94950280910601909184
:101A2000070128E534E030930501209304010E946A
:101A3000F6021092010561E086E00E94950261E0E5
:101A400084E00E94950261E084E00E94490260E027
:101A500087E00E94950260E087E00E9449021092B0
:101A6000FC041092FB041092FA041092F9040E94F4
:101A70002A038FE091E09093F8048093F7048BE1C0
:101A800091E09093F6048093F50488E88093BA007F
:101A90001092C8061092C7061092C6061092C5068C
:101AA0001092C4061092C3068DE991E09093CA0685
:101AB0008093C9069091B906963108F047C02DEB86
:101AC00030E03093C4062093C3062BE931E0309315
:101AD000C6062093C5062CE231E03093C806209359
:101AE000C7062091680084E0983048F031E09E30CD
:101AF00008F430E081E001C0880F3A95EAF7822BC4
:101B0000809368002DE630E0983050F02BE630E00E
:101B10009E3030F02CE630E0963110F030E020E0DE
:101B20003093C1062093C006292F30E0983008F08A
:101B300087C081E001C0880F9A95EAF78093C206BA
:101B40008091C9069091CA060197F1F78091C70666
:101B50009091C806892B49F1E091FF04F0910005AE
:101B6000B6E0ED3AFB0709F1309739F0A389B48963
:101B70009C918589809589238C938091CB068E7F5B
:101B80008093CB061092FE041092FD048DEA96E03D
:101B9000909300058093FF04E091C006F091C10688
:101BA00080819091C206892B808387E591E00E9415
:101BB0000E028BE391E00E94C40483E391E00E9453
:101BC000C40470E5B72E00E010E0EE24E394F12C9D
:101BD000C091AB06D091AC06209709F43EC08EE5CB
:101BE00091E00E940E022091AB063091AC0660E0BD
:101BF00070E0CB0121153105C9F08091A9069091C3
:101C0000AA06821B930B97FD8096215031093093D1
:101C1000AC062093AB06880F991F880F991FFC0113
:101C2000E75DF94F60817181828193814AE00E9472
:101C3000100569ED71E080E895E00E94B504C8CF19
:101C40009E3040F42850310981E001C0880F2A9568
:101C5000EAF774CF2E503109F7CF80E895E00E9463
:101C60007A01892B09F4C2C080E895E00E945801EE
:101C70008532910509F052C06CE072E080E395E096
:101C80000E9401103C0152E1C52E51E0D52EF60113
:101C900060817181C3010E94E812892B11F51092B5
:101CA0002B0510922A056CE072E090E080E00E9423
:101CB0000110009709F445C020912A0530912B05A9
:101CC00024313105F4F5F901EE0FFF1FEE5FFA4FF5
:101CD000918380832F5F3F4F30932B0520932A05FC
:101CE000E2CF2196F8E0CF0ED11CCE30D10579F6A7
:101CF0008FE791E00E940E028FE30E940902C30168
:101D00000E94F50464C093E0CC0FDD1F9A95E1F7C3
:101D1000CE5EDE4FEE81FF81099559C020912E05E0
:101D200030912F05203531050CF060C0F901E05DE0
:101D3000FA4F80832F5F3F4F30932F0520932E055E
:101D400055C0FE0183E0EE0FFF1F8A95E1F7EE5EBE
:101D5000FE4FC280D380D7FCD6CF80912A059091C8
:101D60002B05C816D90679F28CE791E00E940E0285
:101D70006114710429F0B30180E895E00E94B50474
:101D800083E791E00E940E0240902A0550902B05B7
:101D9000052C000C660877084AE0C301B20177FE03
:101DA0000BC08DE20E94090266277727CB016419D8
:101DB0007509860997094AE00E94100580E791E0BD
:101DC0000E940E026AE070E0C6010E94560588E695
:101DD00091E00E94C40410922F0510922E05E0E3BA
:101DE000F5E0DF018B2D1D928A95E9F78DEA96E0EB
:101DF0000E940204892BD9F080912C0590912D0529
:101E0000892B41F482E891E00E940E02F0922D05A8
:101E1000E0922C058DEA96E00E941A04EC010E94E3
:101E200009022A9721F410922D0510922C05011514
:101E3000110509F4CDCE0E948601882309F4C8CE8D
:101E40000E940000C5CE8AEA91E09093AE0680938E
:101E5000AD068091FF04909100058D5A964071F473
:101E6000E091C006F091C10690818091C2068095F4
:101E700089238083109200051092FF0408958F92A9
:101E80009F92AF92BF92CF92DF92EF92FF92CF9349
:101E9000DF93EC01688179818A819B8161157105ED
:101EA0008105910521F464E279ED8BE597E02DE160
:101EB00033EF41E050E00E94351049015A019B0187
:101EC000AC01A7EAB1E40E9454106B017C01ACEEB6
:101ED000B4EFA50194010E946210C60ED71EE81E41
:101EE000F91EF7FE06C081E0C81AD108E10880E8B3
:101EF000F80AC882D982EA82FB82C701B6019F77BD
:101F0000DF91CF91FF90EF90DF90CF90BF90AF9097
:101F10009F908F9008958F929F92AF92BF92CF9291
:101F2000DF92EF92FF926091080170910901809118
:101F30000A0190910B01611571058105910521F44C
:101F400064E279ED8BE597E02DE133EF41E050E07D
:101F50000E94351049015A019B01AC01A7EAB1E486
:101F60000E9454106B017C01ACEEB4EFA50194010A
:101F70000E946210C60ED71EE81EF91EF7FE06C0AC
:101F800081E0C81AD108E10880E8F80AC092080187
:101F9000D0920901E0920A01F0920B01C701B6014B
:101FA0009F77FF90EF90DF90CF90BF90AF909F9082
:101FB0008F900895609308017093090180930A013E
:101FC00090930B010895FC0188279927E8942191AB
:101FD0002032E9F3293010F02E30C8F32B3241F0D3
:101FE0002D3239F4689404C00E942D10820F911D87
:101FF000219120532A30C0F31EF4909581959F4F74
:1020000008954CEC56E00E9406100895FA01A19143
:10201000B081009719F41097E1F0CD01DC01CD01FA
:102020000D90002011F4C00113C0FB012191222367
:1020300019F02015D9F7F3CFFB012191201519F4E0
:102040001E92119606C02223C1F70D900020A1F721
:10205000D001FA01A193B08308957AE0979F902D63
:10206000879F802D910D11240895052E97FB1EF456
:1020700000940E944C1057FD07D00E949E1007FC50
:1020800003D04EF40C944C1050954095309521950A
:102090003F4F4F4F5F4F0895909580957095619594
:1020A0007F4F8F4F9F4F08950E94C010A59F900DA6
:1020B000B49F900DA49F800D911D11240895B7FF2A
:1020C0000C9454100E945410821B930B08952F926D
:1020D0003F924F925F926F927F928F929F92AF92B8
:1020E000BF92CF92DF92EF92FF920F931F93CF9305
:1020F000DF93CDB7DEB7CA1BDB0B0FB6F894DEBF9C
:102100000FBECDBF09942A88398848885F846E84C1
:102110007D848C849B84AA84B984C884DF80EE800B
:10212000FD800C811B81AA81B981CE0FD11D0FB614
:10213000F894DEBF0FBECDBFED010895A1E21A2EC7
:10214000AA1BBB1BFD010DC0AA1FBB1FEE1FFF1F5B
:10215000A217B307E407F50720F0A21BB30BE40BAB
:10216000F50B661F771F881F991F1A9469F76095F2
:102170007095809590959B01AC01BD01CF010895AC
:10218000A29FB001B39FC001A39F700D811D1124B8
:10219000911DB29F700D811D1124911D089597FB13
:1021A000072E16F4009407D077FD09D00E94E310A3
:1021B00007FC05D03EF4909581959F4F089570954A
:1021C00061957F4F0895AA1BBB1B51E107C0AA1F51
:1021D000BB1FA617B70710F0A61BB70B881F991FC8
:1021E0005A95A9F780959095BC01CD010895EE0F01
:1021F000FF1F0590F491E02D09940F931F93CF9347
:10220000DF938230910510F482E090E0E091D006F7
:10221000F091D10630E020E0B0E0A0E0309799F4F2
:102220002115310509F44AC0281B390B243031052A
:10223000D8F58A819B816115710589F1FB01938332
:102240008283FE0111C040815181028113814817B0
:102250005907E0F04817590799F4109761F0129662
:102260000C93129713961C933296CF01DF91CF9166
:102270001F910F9108950093D0061093D106F4CFCB
:102280002115310551F04217530738F0A901DB0140
:102290009A01BD01DF01F801C1CFEF01F9CF9093A1
:1022A000D1068093D006CDCFFE01E20FF31F8193BC
:1022B00091932250310939832883D7CF2091CE06BC
:1022C0003091CF06232B41F420910E0130910F0164
:1022D0003093CF062093CE0620910C0130910D0152
:1022E0002115310541F42DB73EB7409110015091B1
:1022F0001101241B350BE091CE06F091CF06E217B9
:10230000F307A0F42E1B3F0B2817390778F0AC0118
:102310004E5F5F4F2417350748F04E0F5F1F5093F5
:10232000CF064093CE06819391939FCFF0E0E0E0FB
:102330009CCFCF93DF930097E9F0FC013297138293
:102340001282A091D006B091D106ED0130E020E0DC
:102350001097A1F420813181820F931F2091CE0626
:102360003091CF062817390709F061C0F093CF06E6
:10237000E093CE06DF91CF910895EA01CE17DF07F3
:10238000E8F54A815B819E0141155105B1F7E901EC
:10239000FB83EA8349915991C40FD51FEC17FD07C0
:1023A00061F4808191810296840F951FE9019983E0
:1023B0008883828193819B838A83F0E0E0E0129698
:1023C0008D919C9113970097B9F52D913C911197A0
:1023D000CD010296820F931F2091CE063091CF0639
:1023E0002817390739F6309751F51092D106109217
:1023F000D006B093CF06A093CE06BCCFD383C283C2
:1024000040815181840F951FC817D90761F44E5F31
:102410005F4F88819981480F591F518340838A817A
:102420009B81938382832115310509F0B0CFF0930E
:10243000D106E093D0069ECFFD01DC01C0CF138210
:102440001282D7CFB0E0A0E0E8E2F2E10C9469108C
:102450008C01009751F4CB010E94FD108C01C80142
:10246000CDB7DEB7E0E10C948510FC01E60FF71F55
:102470009C0122503109E217F30708F49DC0D901ED
:10248000CD91DC911197C617D70798F0C530D105CB
:1024900030F3CE0104978617970708F3C61BD70BB6
:1024A0002297C193D1936D937C93CF010E94991190
:1024B000D6CF5B01AC1ABD0A4C018C0E9D1EA091BB
:1024C000D006B091D106512C412CF12CE12C109763
:1024D00031F58091CE069091CF068815990509F0C7
:1024E0005CC04616570608F058C080910C019091C8
:1024F0000D01009741F48DB79EB7409110015091A6
:102500001101841B950BE817F90708F055C0F093EB
:10251000CF06E093CE06F90171836083A0CF8D9141
:102520009C91119712966C90129713967C9013972A
:10253000A815B90559F56C0142E0C40ED11CCA14A6
:10254000DB0420F1AC014A195B09DA0112961597F8
:1025500080F06282738251834083D9016D937C93B2
:10256000E114F10471F0D7011396FC93EE931297E6
:1025700076CF22968C0F9D1FF90191838083F30102
:10258000EFCFF093D106E093D00669CF48165906F5
:1025900008F42C017D01D3019ACFCB010E94FD10DC
:1025A0007C01009749F0AE01B8010E94DF12C8011A
:1025B0000E949911870153CF10E000E050CFFB013A
:1025C000DC0102C001900D9241505040D8F70895AF
:1025D000FB01DC018D91019080190110D9F3990B59
:1025E0000895FB01DC0101900D920020E1F70895B0
:1025F00010E0C4EED0E004C0FE010E94F710219666
:0A260000C53ED107C9F7F894FFCFDB
:10260A002000020302030100010000000000D206BC
:10261A0080000E020000DB01BA051A020000130254
:10262A00F1041F0201002302E106370200004402FE
:10263A00DA04550200006302D4046F02FFFF73023A
:10264A002B07830201008E02AE06C0020000CC02F4
:10265A00E904DA020000E502FE06050300001003A1
:10266A008C051B0300001E030C05290301002C0323
:10267A0053063D03010040038D064F030000460345
:10268A00B00500000000BC011C01490129027A01C1
:10269A0058016C01000000007D0372038A0448039C
:1026AA006B035803490300000000A6031C018A04B7
:1026BA00480302041A048E03652D5B454D4F4E20D4
:1026CA0054726967676572696E67206E6F742073EA
:1026DA007570706F727465645D0D0A006D2D766594
:1026EA007273696F6E2D006D2D5B54696D65722072
:1026FA0064697361626C6564206166746572206DD9
:10270A006F6465206368616E67655D0020006865B7
:10271A006C7000646576696365206E616D65007230
:10272A00657300526573657420706F6C61726974A9
:10273A007920302A2C3100656E61626C652D7469CE
:10274A006D657200456E61626C652074696D6572B3
:10275A00204953520064697361626C652D74696D16
:10276A0065720044697361626C6520495352006462
:10277A0075740044555420706173737468726F7570
:10278A006768006932632D656E61626C65004E2070
:10279A003A20456E61626C652049324320736C6150
:1027AA0076652D6D6F646520746F2073656E642085
:1027BA004E20627974657320286D6F643136290062
:1027CA006932632D64697361626C6500446973617F
:1027DA00626C652061626F7665006C6F61642D764C
:1027EA0064617461004C6F61642031362072616EDD
:1027FA00646F6D20627974657320696E746F2076D8
:10280A00646174610073686F772D76646174610026
:10281A0053686F772076646174610065740053743D
:10282A0061727420456D6F6E00746D00303D666193
:10283A006C6C2F312A3D6368616E676500747000A5
:10284A005B7265735D006669726D77617265207689
:08285A00657273696F6E0000E6
:00000001FF
